:020000040800F2
:1000000000100020A10900088D0900088F090008D0
:1000100000000000000000000000000000000000E0
:10002000000000000000000000000000910900082E
:100030000000000000000000930900089509000876
:10004000F109000800000000F1090008F1090008AA
:10005000F1090008F1090008F1090008F109000898
:1000600000000000F1090008F1090008F10900088A
:10007000F1090008F1090008F1090008000000007A
:10008000F10900080000000000000000F10900086C
:1000900000000000F1090008F1090008F10900085A
:1000A00000000000F109000800000000F10900084C
:1000B0000000000000000000000000000000000040
:1000C000002934D00123002210B488422CD301240B
:1000D0002407A14204D2814202D209011B01F8E7A0
:1000E000E400A14204D2814202D249005B00F8E759
:1000F000884201D3401A1A434C08A04202D3001B85
:100100005C0822438C08A04202D3001B9C082243B7
:10011000CC08A04202D3001BDC082243002803D0F5
:100120001B0901D00909E3E7100010BC704701B5B5
:10013000002000F00BF802BD0029F8D003B5FFF74E
:10014000C1FF0EBC4243891A1847C0467047C046DB
:1001500010B5064C2378002B07D1054B002B02D09D
:10016000044800E000BF0123237010BD10000020F0
:1001700000000000E40B0008044B10B5002B03D076
:100180000349044800E000BF10BDC0460000000065
:1001900014000020E40B000810B504000F4B197880
:1001A000FA208000FFF78CFF01000D4B1868FFF765
:1001B00087FF00F08BF800280DD1032C01D9012016
:1001C0000AE0013000222100404200F07BF8054B9C
:1001D0001C60002000E0012010BDC046000000208F
:1001E000080000200400002010B5064A1368102102
:1001F0000B4313600320FFF7CFFF00F0AFFB00209D
:1002000010BDC04600200240034A1168034B1B7812
:100210005B1813607047C0462C00002000000020CF
:10022000014B18687047C0462C00002070B50028AC
:1002300011DB8308134DC0339B005C59032210402F
:10024000C000FC3216008640B44389010A40824057
:1002500022435A5170BD0F230340083B9B080633CD
:100260009B00094A944663445C6803221040C00026
:10027000FC3215008540AC4389010A40824022438C
:100280005A60E7E700E100E000ED00E0013880237C
:100290005B0498420FD2094A50600948036A1B0266
:1002A0001B0AC02109060B43036200239360073336
:1002B0001360002070470120FCE7C04610E000E01A
:1002C00000ED00E010B5FFF7B1FF10BD10B5FFF76E
:1002D000DDFF10BD70B582B0041E00D12EE20368B0
:1002E000DB0726D5AE4B5A680C231340042B18D0DD
:1002F000AB4B5A680C231340082B0ED06368012BBC
:100300003CD0002B51D1A64B1A68A6490A401A606E
:100310001A68A5490A401A6036E0A14B5B68DB0306
:10032000ECD59F4B1B689B0303D56368002B00D162
:1003300007E223689B0772D5994B5B680C221A422F
:100340005DD0974B5A680C231340082B53D0E368B9
:10035000002B00D185E0924A136801210B43136002
:10036000FFF75EFF05008E4B1B689B0770D4FFF7FD
:1003700057FF401B0228F6D90320E0E1884A1168A4
:1003800080235B020B4313606368002B25D0FFF7CB
:1003900047FF0500824B1B689B03CAD4FFF740FF51
:1003A000401B6428F6D90320C9E1052B09D07C4BFA
:1003B0001A687C490A401A601A687B490A401A6028
:1003C000E2E7774B19688022D2020A431A60196863
:1003D000802252020A431A60D6E7FFF721FF050088
:1003E0006F4B1B689B03A4D5FFF71AFF401B6428C3
:1003F000F6D90320A3E16A4B5B68DB03A7D4684B03
:100400001B689B0703D5E368012B00D09BE164497F
:100410000B68F82293432269D20013430B602368D0
:100420001B0744D5E369002B2ED05D4A536A012196
:100430000B435362FFF7F4FE0500594B5B6A9B07C1
:1004400035D4FFF7EDFE401B0228F6D9032076E1F4
:1004500053490B68F82293432269D20013430B607F
:10046000DDE74F4A136801218B431360FFF7D8FE85
:1004700005004B4B1B689B07D1D5FFF7D1FE401BF6
:100480000228F6D903205AE1454A536A01218B43D9
:100490005362FFF7C5FE0500414B5B6A9B0706D51B
:1004A000FFF7BEFE401B0228F6D9032047E1236870
:1004B0005B0700D480E03A4BDB69DB001DD4384B8E
:1004C000DA69802149050A43DA61DB690B4001934F
:1004D000019B0125354B1B68DB0510D5A368012B5B
:1004E00021D0002B36D12E4B1A6A01218A431A6281
:1004F0001A6A03318A431A621AE00025EAE72B4A96
:10050000116880235B000B431360FFF789FE060030
:10051000264B1B68DB05E1D4FFF782FE801B6428B5
:10052000F6D903200BE11E4A136A01210B43136223
:10053000A368002B24D0FFF773FE0600184B1B6A3C
:100540009B0737D4FFF76CFE801B194B9842F5D9F7
:100550000320F4E0052B09D0114B1A6A01218A43CC
:100560001A621A6A03318A431A62E1E70C4B1A6A6B
:1005700004210A431A621A6A03390A431A62D7E746
:10058000FFF74EFE0600064B1B6A9B0712D5FFF7CE
:1005900047FE801B064B9842F5D90320CFE0C046AA
:1005A00000100240FFFFFEFFFFFFFBFF0070004056
:1005B00088130000012D33D02368DB0610D5636952
:1005C000012B33D0053351D1654A536B04218B4342
:1005D0005363536BF4318B43A169C9000B435363DD
:1005E000236A002B00D1B0E05D4A51680C220A401A
:1005F000082A00D18AE0022B4FD0594A1368594982
:100600000B401360FFF70CFE0400554B1B689B0169
:100610007AD5FFF705FE001B0228F6D903208EE0ED
:100620004F4AD36950490B40D361C5E74C4B5A6BD5
:1006300004210A435A635A6B03390A435A63FFF78A
:10064000EFFD0500464B5B6B9B0706D4FFF7E8FD0B
:10065000401B0228F6D9032071E041494B6BF82278
:100660009343A269D20013434B63B9E73C4B5A6BE7
:1006700004210A435A635A6B03398A435A63FFF7CA
:10068000CFFD0500364B5B6B9B07A9D5FFF7C8FD77
:10069000401B0228F6D9032051E0314A1368314942
:1006A0000B401360FFF7BCFD05002D4B1B689B0141
:1006B00006D5FFF7B5FD401B0228F6D903203EE022
:1006C000274BDA6A0F218A43E16A0A43DA625A68E1
:1006D00026490A40A16A606A01430A435A601968C0
:1006E000802252040A431A60FFF79AFD04001C4B53
:1006F0001B689B0106D4FFF793FD001B0228F6D967
:1007000003201CE000201AE0002018E0012B1ED07E
:10071000134B5A68D86A80235B021340616A8B428C
:1007200017D10F230340E16A8B4214D1F0239B03BE
:100730001A40A36A9A4210D1002000E0012002B0C2
:1007400070BD0120FBE70120F9E70020F7E7012059
:10075000F5E70120F3E70120F1E70120EFE7C046CC
:1007600000100240FFFFFFFEFFFFFFEFFFFFC2FF91
:1007700010B5104B5A680C231340082B01D00E48BB
:1007800010BD910C073319400C48445C0949C96AF3
:100790000B400B49C95CD20304D50748FFF790FC16
:1007A0006043EDE76201121B93019B1ADB001B19EA
:1007B0001802E5E70010024000127A000C0C000855
:1007C000FC0B000870B504000D00002800D17EE08D
:1007D000434B1A68012313408B420AD240490B68ED
:1007E000012293432B430B600B681A40AA4200D0AE
:1007F0006FE023689A070ED55B0705D5394A516823
:10080000E023DB000B435360364A5368F0218B43EF
:10081000A1680B4353602368DB072DD56368012B68
:100820001ED0022B22D02F4A1268920753D52D4991
:100830004A680320824313434B60FFF7F1FC060034
:10084000284B5B680C221A4063689B009A4213D0C5
:10085000FFF7E6FC801B244B9842F1D9032035E0DA
:10086000204A12689203E2D401202FE01D4A126848
:100870009201DCD4012029E0194B1A6801231340AE
:10088000AB4209D916490B68012293432B430B60F5
:100890000B681A40AA4220D123685B0706D5114A8B
:1008A000536812490B40E1680B435360FFF760FF48
:1008B0000C4B5A6812090F2313400D4AD35CD840E1
:1008C0000C4B18600320FFF767FC002070BD01206F
:1008D000FCE70120FAE70120F8E70120F6E7C0462F
:1008E000002002400010024088130000FFF8FFFFC4
:1008F0001C0C00080800002072B6FEE700B591B09D
:100900003022002104A800F07DF810220021684662
:1009100000F078F802230493013B07930F33089308
:1009200004A8FFF7D7FC00280DD10723009300236C
:1009300001930293039300216846FFF743FF0028C9
:1009400003D111B000BDFFF7D7FFFFF7D5FF10B5FA
:10095000FFF74AFCFFF7D2FFFEE7000082B00A4B28
:10096000996901221143996199690A400092009A9C
:10097000DA69802149050A43DA61DB690B4001939A
:10098000019B02B07047C04600100240FEE7FEE740
:100990007047704710B5FFF737FC10BD7047000077
:1009A0000D488546FFF7FAFF0C480D490D4A002314
:1009B00002E0D458C4500433C4188C42F9D30A4A14
:1009C0000A4C002301E013600432A242FBD300F082
:1009D0006DF8FFF7BCFFFEE70010002000000020CC
:1009E00010000020380C000810000020C801002072
:1009F000FEE7000010B5010000230022002000F0F7
:100A000091F810BDF0B50500830749D0541E002AA7
:100A100045D003000326CAB202E00135013C3ED3B3
:100A200001332A703342F8D1032C30D9FF220A4017
:100A30001502AD182A04AD180F2C34D92700103F29
:100A40003F093E01B4461E001A0010366644156088
:100A500055609560D56010329642F8D101373F015C
:100A6000DB190F270C22274022403C00002A0ED021
:100A70003E1FB608B400A4461A001C1D644420C2E0
:100A8000A242FCD103240136B6009B193C40002C45
:100A900005D0C9B21C19197001339C42FBD1F0BDBD
:100AA00003001400C0E72700E2E7C04670B50D4B15
:100AB0000D4D5E1BB610AB4205D0002408CD0134AD
:100AC0009847A642FAD800F08DF8084B084D5E1BF7
:100AD000B610AB4205D0002408CD01349847A64299
:100AE000FAD870BD2C0C00082C0C0008340C00083F
:100AF0002C0C000870B5074C074D641BA41005D0E2
:100B0000013CA300EB589847002CF9D100F070F895
:100B100070BDC046380C0008340C00087047C04651
:100B20007047C046F0B5D6464F4646469846244BD9
:100B3000C0B5060018689A460F009146FFF7EEFF11
:100B4000204B1D68002D32D053466C6818681F2C4E
:100B500030DC002E0CD1631C0234A4006B606751A2
:100B6000FFF7DEFF0020E0BCBA46B146A846F0BD64
:100B700049468822A300EB189950C42149008C46AD
:100B8000AC446146873AA2400968914611436246E7
:100B900011608421424649005A50022EDBD12900BF
:100BA0004A468D31FF310B6813430B60D3E7064D86
:100BB0001D60C9E7FFF7B4FF01204042D3E7C046FC
:100BC0000C000020C401002034000020034B10B5AD
:100BD000002B02D00248FFF70DFF10BD00000000FF
:100BE000F50A0008F8B5C046F8BC08BC9E46704738
:0C0BF000F8B5C046F8BC08BC9E46704733
:100BFC000102030405060708090A0B0C0D0E0F1061
:100C0C0002030405060708090A0B0C0D0E0F101041
:100C1C0000000000000000000102030406070809A0
:080C2C00CD0B0008790100085E
:040C34005101000862
:100C3800010000000400000000127A0030000020CB
:04000005080009A145
:00000001FF
