:020000040800F2
:100000000010002089010008750100087701000830
:1000100000000000000000000000000000000000E0
:10002000000000000000000000000000790100084E
:1000300000000000000000007B0100087D010008B6
:10004000D901000800000000D9010008D90100080A
:10005000D9010008D9010008D9010008D901000818
:1000600000000000D9010008D9010008D9010008EA
:10007000D9010008D9010008D901000800000000DA
:10008000D90100080000000000000000D9010008AC
:1000900000000000D9010008D9010008D9010008BA
:1000A00000000000D901000800000000D90100088C
:1000B0000000000000000000000000000000000040
:1000C00010B5064C2378002B07D1054B002B02D02E
:1000D000044800E000BF0123237010BD0800002089
:1000E0000000000024030008044B10B5002B03D0CF
:1000F0000349044800E000BF10BDC04600000000F6
:100100000C00002024030008034A1168034B1B78ED
:100110005B1813607047C0462400002000000020D8
:100120000F4A136801210B4313600E4B196880229C
:10013000D2000A431A601A680B490A401A6004E0A8
:100140000A4A136820210B431360094B1B68DB0725
:10015000F6D4064A136820218B431360F5E7C046A6
:100160003038024000000240FFF7FFFF0C00024061
:1001700008000240FEE7FEE77047704710B5FFF742
:10018000C3FF10BD704700000D488546FFF7FAFF1A
:100190000C480D490D4A002302E0D458C4500433E2
:1001A000C4188C42F9D30A4A0A4C002301E01360B8
:1001B0000432A242FBD300F019F8FFF7B1FFFEE7CB
:1001C0000010002000000020080000204803000864
:1001D00008000020C0010020FEE7000010B501006B
:1001E00000230022002000F03DF810BD70B50D4B3B
:1001F0000D4D5E1BB610AB4205D0002408CD013476
:100200009847A642FAD800F08DF8084B084D5E1BBF
:10021000B610AB4205D0002408CD01349847A64261
:10022000FAD870BD3C0300083C03000844030008F2
:100230003C03000870B5074C074D641BA41005D0A3
:10024000013CA300EB589847002CF9D100F070F85E
:1002500070BDC04648030008440300087047C0460C
:100260007047C046F0B5D6464F4646469846244BA2
:10027000C0B5060018689A460F009146FFF7EEFFDA
:10028000204B1D68002D32D053466C6818681F2C17
:1002900030DC002E0CD1631C0234A4006B6067516B
:1002A000FFF7DEFF0020E0BCBA46B146A846F0BD2D
:1002B00049468822A300EB189950C42149008C4676
:1002C000AC446146873AA2400968914611436246B0
:1002D00011608421424649005A50022EDBD1290088
:1002E0004A468D31FF310B6813430B60D3E7064D4F
:1002F0001D60C9E7FFF7B4FF01204042D3E7C046C5
:1003000004000020BC0100202C000020034B10B58D
:10031000002B02D00248FFF761FF10BD0000000073
:1003200035020008F8B5C046F8BC08BC9E467047C8
:0C033000F8B5C046F8BC08BC9E467047FB
:08033C000D030008E9000008B0
:04034400C1000008EC
:08034800010000002800002064
:040000050800018965
:00000001FF
